{
  "contractName": "FarmerRole",
  "abi": [
    {
      "inputs": [],
      "payable": false,
      "stateMutability": "nonpayable",
      "type": "constructor"
    },
    {
      "anonymous": false,
      "inputs": [
        {
          "indexed": true,
          "internalType": "address",
          "name": "account",
          "type": "address"
        }
      ],
      "name": "FarmerAdded",
      "type": "event"
    },
    {
      "anonymous": false,
      "inputs": [
        {
          "indexed": true,
          "internalType": "address",
          "name": "account",
          "type": "address"
        }
      ],
      "name": "FarmerRemoved",
      "type": "event"
    },
    {
      "constant": true,
      "inputs": [
        {
          "internalType": "address",
          "name": "account",
          "type": "address"
        }
      ],
      "name": "isFarmer",
      "outputs": [
        {
          "internalType": "bool",
          "name": "",
          "type": "bool"
        }
      ],
      "payable": false,
      "stateMutability": "view",
      "type": "function"
    },
    {
      "constant": false,
      "inputs": [
        {
          "internalType": "address",
          "name": "account",
          "type": "address"
        }
      ],
      "name": "addFarmer",
      "outputs": [],
      "payable": false,
      "stateMutability": "nonpayable",
      "type": "function"
    },
    {
      "constant": false,
      "inputs": [],
      "name": "renounceFarmer",
      "outputs": [],
      "payable": false,
      "stateMutability": "nonpayable",
      "type": "function"
    }
  ],
  "bytecode": "0x608060405234801561001057600080fd5b50610023336001600160e01b0361002816565b610101565b61004081600061007760201b6101b61790919060201c565b6040516001600160a01b038216907f2e0ded4123377a3c2bc9a26f1717655a129e2f20752924d42e730ec89c83dbd090600090a250565b6001600160a01b03811661008a57600080fd5b61009d82826001600160e01b036100cc16565b156100a757600080fd5b6001600160a01b0316600090815260209190915260409020805460ff19166001179055565b60006001600160a01b0382166100e157600080fd5b506001600160a01b03166000908152602091909152604090205460ff1690565b61027f806101106000396000f3fe608060405234801561001057600080fd5b50600436106100415760003560e01c806380c3f96d1461004657806380fc0ce41461006e578063b942906914610076575b600080fd5b61006c6004803603602081101561005c57600080fd5b50356001600160a01b03166100b0565b005b61006c6100ce565b61009c6004803603602081101561008c57600080fd5b50356001600160a01b03166100d9565b604080519115158252519081900360200190f35b6100b9336100d9565b6100c257600080fd5b6100cb816100f1565b50565b6100d733610139565b565b60006100eb818363ffffffff61018116565b92915050565b61010260008263ffffffff6101b616565b6040516001600160a01b038216907f2e0ded4123377a3c2bc9a26f1717655a129e2f20752924d42e730ec89c83dbd090600090a250565b61014a60008263ffffffff61020216565b6040516001600160a01b038216907fa5e0f060af304ab17dd418c7927e3da3ae7868189bf387aee09ab179ccc572f290600090a250565b60006001600160a01b03821661019657600080fd5b506001600160a01b03166000908152602091909152604090205460ff1690565b6001600160a01b0381166101c957600080fd5b6101d38282610181565b156101dd57600080fd5b6001600160a01b0316600090815260209190915260409020805460ff19166001179055565b6001600160a01b03811661021557600080fd5b61021f8282610181565b61022857600080fd5b6001600160a01b0316600090815260209190915260409020805460ff1916905556fea265627a7a723158200e9f1410e01c5a51141dad83f633fdbd2fcd2672ddf219d1367447794c65a38664736f6c63430005100032",
  "source": "pragma solidity >=0.4.22 <0.7.0;\r\n\r\n// Import the library 'Roles'\r\nimport \"./Roles.sol\";\r\n\r\n// Define a contract 'FarmerRole' to manage this role - add, remove, check\r\ncontract FarmerRole {\r\n  using Roles for Roles.Role;\r\n\r\n  // Define 2 events, one for Adding, and other for Removing\r\n  event FarmerAdded(address indexed account);\r\n  event FarmerRemoved(address indexed account);\r\n\r\n  // Define a struct 'farmers' by inheriting from 'Roles' library, struct Role\r\n  Roles.Role private farmers;\r\n\r\n  // In the constructor make the address that deploys this contract the 1st farmer\r\n  constructor() public {\r\n    _addFarmer(msg.sender);\r\n  }\r\n\r\n  // Define a modifier that checks to see if msg.sender has the appropriate role\r\n  modifier onlyFarmer() {\r\n    require(isFarmer(msg.sender));\r\n    _;\r\n  }\r\n\r\n  // Define a function 'isFarmer' to check this role\r\n  function isFarmer(address account) public view returns (bool) {\r\n    return farmers.has(account);\r\n  }\r\n\r\n  // Define a function 'addFarmer' that adds this role\r\n  function addFarmer(address account) public onlyFarmer {\r\n    _addFarmer(account);\r\n  }\r\n\r\n  // Define a function 'renounceFarmer' to renounce this role\r\n  function renounceFarmer() public {\r\n    _removeFarmer(msg.sender);\r\n  }\r\n\r\n  // Define an internal function '_addFarmer' to add this role, called by 'addFarmer'\r\n  function _addFarmer(address account) internal {\r\n    farmers.add(account);\r\n    emit FarmerAdded(account);\r\n  }\r\n\r\n  // Define an internal function '_removeFarmer' to remove this role, called by 'removeFarmer'\r\n  function _removeFarmer(address account) internal {\r\n    farmers.remove(account);\r\n    emit FarmerRemoved(account);\r\n  }\r\n}",
  "sourcePath": "C:\\Users\\bene_\\code\\ethereum\\blockchainProject3\\project-6\\contracts\\coffeeaccesscontrol\\FarmerRole.sol",
  "compiler": {
    "name": "solc",
    "version": "0.5.16+commit.9c3226ce.Emscripten.clang"
  },
  "schemaVersion": "3.4.13",
  "updatedAt": "2023-04-24T18:42:03.321Z",
  "networkType": "ethereum",
  "devdoc": {
    "methods": {}
  },
  "userdoc": {
    "methods": {}
  }
}